:100000000C9479010C94D1190C94AA190C94A101A7
:100010000C94A1010C94A1010C946F1B0C94A101F0
:100020000C94A1010C94A1010C94A1010C94A101C8
:100030000C94A1010C94A1010C94A1010C94A101B8
:100040000C9460190C94A1010C941E1A0C94F819CC
:100050000C94A1010C94A1010C94A1010C94A10198
:100060000C94501A0C94A10107634236B79BD8A791
:100070001A39685618AEBAAB558C1D3CB7CC5763CD
:10008000BD6DEDFD753EF6177231BF000000803F7B
:1000900008000000BE922449123EABAAAA2ABECD97
:1000A000CCCC4C3E00000080BEABAAAAAA3E000009
:1000B0000000BF000000803F000000000008417801
:1000C000D3BB4387D1133D190E3CC3BD4282AD2B38
:1000D0003E68EC8276BED98FE1A93E4C80EFFFBE30
:1000E00001C4FF7F3F00000000004E414E494E49D1
:1000F0005459494E46CDCCCC3D0AD7233C17B7D1F5
:100100003877CC2B329595E6241FB14F0A0000209A
:10011000410000C84200401C4620BCBE4CCA1B0E19
:100120005AAEC59D7400407A10F35A00A0724E1862
:10013000090010A5D4E80000E87648170000E40B99
:1001400054020000CA9A3B000000E1F5050000805F
:10015000969800000040420F000000A086010000B9
:1001600000102700000000E8030000000064000009
:100170000000000A00000000000100000000002C48
:1001800076D888DC674F0823DFC1DFAE59E1B1B70D
:1001900096E5E3E453C63AE651997696E8E6C284DA
:1001A00026EB898C9B62ED407C6FFCEFBC9C9F40F2
:1001B000F2BAA56FA5F490055A2AF75C936B6CF917
:1001C000676DC11BFCE0E40D47FEF520E6B500D0ED
:1001D000ED902E0300943577050080841E08000002
:1001E000204E0A000000C80C333333330F986E12D0
:1001F000831141EF8D2114893BE65516CFFEE6DBD6
:1002000018D1844B381BF77C1D901DA4BBE424201F
:100210003284725E228100C9F124ECA1E53D2732CF
:100220002E332E310A00207C5F5C2F602C0A0702DF
:10023000200220B287100340012000240222100275
:100240002202022002220022200202202227101372
:10025000410101010322203040203052034022148A
:1002600002031052240221710100101012101222F8
:10027000101002240101032203002001010032209A
:100280003712100121322601284032221210121298
:1002900022432224121001222470C122240F0F00B5
:1002A0000000080002010000030407000000000035
:1002B00000000000000000250028002B00000000C6
:1002C00000240027002A0004040404040404040297
:1002D00002020202020303030303030102040810E3
:1002E00020408001020408102001020408102000B0
:1002F0008E1B11241FBECFEFD8E0DEBFCDBF11E0B3
:10030000A0E0B1E0EAEFFEE402C005900D92A83F44
:10031000B107D9F724E0A8EFB1E001C01D92A73FD3
:10032000B207E1F711E0C9E7D1E004C02197FE016F
:100330000E945D27C837D107C9F70E942C1C0C9476
:100340007B270C940000982F2091090381E0213233
:1003500008F043C08091E5028111FCCF8091080331
:1003600032E03093E5029093E4029FEF9093E30232
:100370001092E2022093E102A8EEB2E0E1ECF2E09A
:1003800090E0291331C01092C0029091C002880FF2
:10039000892B8093C0028091BF02813049F5109271
:1003A000BF028091C0028093BB008091BC0083FD9E
:1003B000F8CF85EC8093BC008091E5028230E1F3B8
:1003C0008091E3028F3FB1F08091E3028032A1F08F
:1003D0008091E302803391F084E01092E702109262
:1003E00009031092E60208953D9131939F5FC9CFB2
:1003F00085EEE0CF80E0F1CF82E0EFCF83E0EDCF7C
:100400009091E5029111FCCF91E09093E5029093D9
:10041000E4022FEF2093E3021092E202260F2093D2
:10042000E1029093C0029091C002880F892B8093C3
:10043000C0028091BF028130F9F41092BF02809116
:10044000C0028093BB008091BC0083FDF8CF85EC97
:100450008093BC008091E5028130E1F38091E2025B
:10046000861710F46091E202A1ECB2E0EFE9F2E04D
:1004700080E0861303C0089585EEEACF9D919193A5
:100480008F5FF7CF80919E0290919D02891B990BFF
:1004900008950895089590E0FC01E552FD4F2491E0
:1004A00089539D4FFC018491882399F090E0880F37
:1004B000991FFC01E354FD4FA591B491FC01ED544B
:1004C000FD4F859194918FB7F894EC91E22BEC93CA
:1004D0008FBF089590E0FC01E156FD4F2491FC018F
:1004E000E552FD4F3491FC01E953FD4FE491EE23B9
:1004F000C9F0222339F0233001F1A8F4213019F199
:10050000223029F1F0E0EE0FFF1FED54FD4FA591D1
:10051000B4918FB7F894EC91611126C030953E23C9
:100520003C938FBF08952730A9F02830C9F02430BC
:1005300049F7809180008F7D03C0809180008F7784
:1005400080938000DFCF84B58F7784BDDBCF84B507
:100550008F7DFBCF8091B0008F778093B000D2CF9A
:100560008091B0008F7DF9CF3E2BDACF10929D02A3
:1005700010929E021092E702109209031092E50277
:1005800081E08093E4021092BF0261E082E10E9468
:100590006A0261E083E10E946A02E9EBF0E0808197
:1005A0008E7F808380818D7F808380E28093B800FE
:1005B00085E48093BC0089E492E090939C02809350
:1005C0009B028AE492E090939A02809399020895A4
:1005D0003FB7F89480918F0290919002A091910280
:1005E000B091920226B5A89B05C02F3F19F0019645
:1005F000A11DB11D3FBFBA2FA92F982F8827BC017D
:10060000CD01620F711D811D911D43E0660F771FA3
:10061000881F991F4A95D1F708958F929F92AF92A4
:10062000BF92CF92DF92EF92FF926B017C010E940A
:10063000E8024B015C01C114D104E104F104B9F0FA
:100640000E94E802681979098A099B09683E73408B
:100650008105910580F321E0C21AD108E108F10873
:1006600088EE880E83E0981EA11CB11CE4CFFF9099
:10067000EF90DF90CF90BF90AF909F908F900895B4
:100680002FB7F89460918B0270918C0280918D024B
:1006900090918E022FBF08950895AF92BF92CF928E
:1006A000DF92EF92FF920F931F93CF93DF936C0132
:1006B0007B018B01040F151FEB015E01AE18BF0813
:1006C000C017D10759F06991D601ED91FC910190C5
:1006D000F081E02DC6010995892B79F7C501DF91DD
:1006E000CF911F910F91FF90EF90DF90CF90BF902F
:1006F000AF900895FC01538D448D252F30E0842F59
:1007000090E0821B930B541710F0CF960895019739
:100710000895FC01918D828D981761F0A28DAE0F26
:10072000BF2FB11D5D968C91928D9F5F9F73928FAD
:1007300090E008958FEF9FEF0895FC01918D828DD9
:10074000981731F0828DE80FF11D858D90E00895A6
:100750008FEF9FEF0895FC01918D228D892F90E0FE
:10076000805C9F4F821B91098F73992708958AE0BF
:1007700093E00E94AB0321E0892B09F420E0822F53
:100780000895FC01A48DA80FB92FB11DA35ABF4F26
:100790002C91848D90E001968F739927848FA68980
:1007A000B7892C93A089B1898C91837080648C93D4
:1007B000938D848D981306C00288F389E02D808183
:1007C0008F7D80830895EF92FF920F931F93CF93B5
:1007D000DF93EC0181E0888F9B8D8C8D98131AC07C
:1007E000E889F989808185FF15C09FB7F894EE8963
:1007F000FF896083E889F9898081837080648083C0
:100800009FBF81E090E0DF91CF911F910F91FF900A
:10081000EF900895F62E0B8D10E00F5F1F4F0F73B2
:100820001127E02E8C8D8E110CC00FB607FCFACF6D
:10083000E889F989808185FFF5CFCE010E94C10347
:10084000F1CFEB8DEC0FFD2FF11DE35AFF4FF0823E
:100850009FB7F8940B8FEA89FB8980818062CFCFA4
:10086000CF93DF93EC01888D8823B9F0AA89BB89E7
:10087000E889F9898C9185FD03C0808186FD0DC0D2
:100880000FB607FCF7CF8C9185FFF2CF808185FFF3
:10089000EDCFCE010E94C103E9CFDF91CF91089542
:1008A00080E090E0892B29F00E94B70381110C941D
:1008B0000000089585ED8093BC008091BC0084FD0C
:1008C000FCCF1092E502089520916702260F33278E
:1008D000331F21323105ECF42091E502FC0190E058
:1008E00080E0243069F082E00895A09167022191B0
:1008F000AC01495B5D4FA40FB52FB11D2C93019640
:10090000861798F380916702680F6093670280E012
:10091000089581E008950895E0919D0280919E02DE
:10092000E81730F4F0E0E156FD4F808190E0089543
:100930008FEF9FEF089590919D0280919E022FEF7F
:100940003FEF981748F4E92FF0E0E156FD4F208182
:1009500030E09F5F90939D02C9010895CF92DF928E
:10096000EF92FF920F931F93CF93DF937C01CB0104
:100970008A012091E602222389F0EB016B01C40E6B
:10098000D51ECC15DD0569F06991D701ED91FC917B
:100990000190F081E02DC7010995F3CF642F0E94EB
:1009A0006404C801DF91CF911F910F91FF90EF90E8
:1009B000DF90CF900895CF93DF931F92CDB7DEB72E
:1009C00069832091E6022223F9F020910903203265
:1009D00058F021E030E0FC013383228390E080E096
:1009E0000F90DF91CF9108958091E702E82FF0E01A
:1009F000E851FD4F998190838F5F8093E702809348
:100A0000090381E090E0ECCF61E0CE0101960E9405
:100A10006404F7CF682F87EA93E00C94DB042091FD
:100A2000B20431E03093E602209308031092E7020B
:100A3000109209030E940A0581E00E94A301282F59
:100A400036EF3203C0011124089581E00C94A30114
:100A500090E080E00895CF93CFB7F894809146025C
:100A6000811124C0E1EDF2E08491E5EEF2E0949191
:100A7000E82FF0E0EE0FFF1FE354FD4FA591B49176
:100A8000EC91E92321F461E08AE00E946A028AE0A5
:100A90000E944B028CB580618CBD8CB580648CBD8E
:100AA0008DE00E944B028BE00E944B028091460237
:100AB0008F5F80934602CFBFCF910895CF92DF9290
:100AC000EF92FF920F931F93CF93DF93D0E0C0E09C
:100AD000062F10E0E82EF12CC017D1072CF5D12CF1
:100AE000C12CCE14DF04C4F461E088E00E946A02E5
:100AF00064E170E080E090E00E940D0360E088E037
:100B00000E946A0264E670E080E090E00E940D03BB
:100B10008FEFC81AD80AE5CF64E670E080E090E075
:100B20000E940D032196D8CFDF91CF911F910F9195
:100B3000FF90EF90DF90CF900895FC018381877044
:100B40008860838384818F71806284836783CF010F
:100B50000895E0913502F0913602309721F002803D
:100B6000F381E02D099408950F931F930E94400391
:100B700000913702109138022091390230913A02E7
:100B8000601B710B820B930B1F910F9108959C01B9
:100B9000809135029091360282179307F1F090917F
:100BA0003F029F7190933F023093360220933502AB
:100BB000E0913502F0913602309721F00190F081FA
:100BC000E02D09950E94400360933702709338022C
:100BD0008093390290933A02089580913F02805E9B
:100BE00080933F02E5CF0F931F930E94B40520919D
:100BF00040022077203779F000E117E220E030E072
:100C0000061717072807390758F486E591E01F9162
:100C10000F910C94C70500E61AEE20E030E0F0CF0B
:100C20001F910F910895809140028F70863020F0BF
:100C300087E191E00C94C705089580913F0284609C
:100C400080933F0280914002807880934002E0913F
:100C50004402F0914502309709F00994089583E128
:100C600091E00C94C7050895809195028F3F21F083
:100C70008FE091E00C94C7050E94B405613D774078
:100C80008105910550F080913F02803618F48BE089
:100C900091E0F0CF87E091E0EDCF08950E94B40598
:100CA000613D77408105910520F480913F0281FFED
:100CB00017C0809196028F3F49F080913F028E7F4E
:100CC00080933F028BE091E00C94C70580913F0236
:100CD000803618F487E191E0F7CF87E091E0F4CF18
:100CE00008958EBD00000DB407FEFDCF8EB50895AA
:100CF000CF93DF93D82FC62F80917904882329F0D2
:100D0000813089F1DF91CF9108952091AB0421309A
:100D1000C9F78091AC049091AD0430917A0420938E
:100D2000E602309308031092E70210920903DC01F7
:100D3000ED91FC910190F081E02D6D2F099580914E
:100D4000AC049091AD04DC01ED91FC910190F08137
:100D5000E02D6C2F09958091AC049091AD04DF914A
:100D6000CF910C94250560E080917B040E946A027B
:100D70008D2F8F770E9471068C2F0E94710661E083
:100D800080917B04DF91CF910C946A02CF93C82F9E
:100D90008AE093E00E94300480917A008F778093FC
:100DA0007A0020916000CF3F09F439C034E0C39F3E
:100DB000C00111248072C770C860C82B88E10FB6CB
:100DC000F894A895809360000FBEC0936000809156
:100DD000600080658093600083B7817F846083BFFB
:100DE000F89483B7816083BF85B7806685BF8F7DA8
:100DF00085BF7894889583B78E7F83BFF894A89534
:100E000080916000886180936000209360007894F6
:100E100080917A00806880937A00CF9108950FB610
:100E2000F894A8958091600088618093600010928A
:100E300060000FBED1CF42E050E064E971E08AE08B
:100E400093E00C944D03CF93DF93FC0101900020BD
:100E5000E9F73197AF01481B590BBC018AE093E0D9
:100E60000E944D03EC010E941B078C0F9D1FDF9118
:100E7000CF910895862F642F0E94000210929D0248
:100E800080939E0208958F929F92AF92BF92CF92CD
:100E9000DF92EF92FF920F931F93CF93DF9300D0D7
:100EA000CDB7DEB77C0142E06091B20487EA93E0FF
:100EB0000E943A070BEF10E080919E0290919D02F4
:100EC000891B990B029764F46AE070E080E090E07F
:100ED0000E940D030150110979F78CE99FEF3CC086
:100EE0008E010F5F1F4F6E0183E0C80ED11C0E9460
:100EF00040036093AF037093B0038093B10390936A
:100F0000B20387EA93E00E949B0497FF34C00E94DB
:100F100040038090AF039090B003A090B103B090D5
:100F2000B203681979098A099B098090AB039090F4
:100F3000AC03A090AD03B090AE03681579058A05A7
:100F40009B05F8F289819A81982789279827F701CC
:100F50009183808390E080E00F900F90DF91CF919C
:100F60001F910F91FF90EF90DF90CF90BF90AF90C7
:100F70009F908F900895F80181938F01CE16DF0620
:100F800009F0B5CFDFCFCF93C82F809179048823A4
:100F900029F0813009F446C0C0E055C02091AB046F
:100FA0002130D1F78091AC049091AD0430917A0456
:100FB0002093E602309308031092E702109209038F
:100FC000DC01ED91FC910190F081E02D6C2F0995F1
:100FD0008091AC049091AD040E94250541E06091A0
:100FE0007A048091AC049091AD040E943A07C0E06D
:100FF0008091AC049091AD04DC01ED91FC910084F2
:10100000F185E02D0995892BF1F08091AC04909148
:10101000AD04DC01ED91FC910284F385E02D09958E
:10102000C82FE6CF60E080917B040E946A028C2F7B
:101030000E94710680E00E947106C82F61E08091D5
:101040007B040E946A028C2FCF910895CF93C82F02
:10105000843008F0C0E084EF0E94C3078C7F682FC3
:101060006C2B84EFCF910C947806CF93DF9362E0E2
:1010700070E080E090E00E940D0380917904882365
:1010800009F4B5C1813009F4BAC180ED0E94C307EB
:10109000883519F0803609F0CBC189E80E94C30772
:1010A000C82F88E80E94C3072C2F30E0322F222758
:1010B000820F932F911D90938704809386048BE871
:1010C0000E94C307C82F8AE80E94C3072C2F30E074
:1010D000322F2227820F932F911D909389048093A2
:1010E00088048DE80E94C307C82F8CE80E94C307BC
:1010F0002C2F30E0322F2227820F932F911D9093B7
:101100008B0480938A048FE80E94C307C82F8EE85F
:101110000E94C3072C2F30E0322F2227820F932FFB
:10112000911D90938D0480938C0481E90E94C307E4
:10113000C82F80E90E94C3072C2F30E0322F2227CE
:10114000820F932F911D90938F0480938E0483E9D7
:101150000E94C307C82F82E90E94C3072C2F30E0EA
:10116000322F2227820F932F911D90939104809309
:10117000900485E90E94C307C82F84E90E94C30731
:101180002C2F30E0322F2227820F932F911D909326
:1011900093048093920487E90E94C307C82F86E9CD
:1011A0000E94C3072C2F30E0322F2227820F932F6B
:1011B000911D909395048093940489E90E94C3073C
:1011C000C82F88E90E94C3072C2F30E0322F222736
:1011D000820F932F911D90939704809396048BE92F
:1011E0000E94C307C82F8AE90E94C3072C2F30E052
:1011F000322F2227820F932F911D90939904809371
:1012000098048DE90E94C307C82F8CE90E94C30788
:101210002C2F30E0322F2227820F932F911D909395
:101220009B0480939A048FE90E94C307C82F8EE91C
:101230000E94C3072C2F30E0322F2227820F932FDA
:10124000911D90939D0480939C0481EA0E94C307A2
:1012500080939E0482EE0E94C307C82F81EE0E94F5
:10126000C3072C2F30E0322F2227820F932F911D9E
:101270009093A00480939F0483EE0E94C307809301
:10128000A10484EE0E94C307C82F85EE0E94C30705
:1012900090E1C99FE00111248F708C0F9D2F911D4B
:1012A0009093A3048093A20486EE0E94C307C82FE4
:1012B00085EE0E94C30790E1C99FE001112490E0F0
:1012C00054E0959587955A95E1F78C0F9D1F909363
:1012D000A5048093A40487EE0E94C3078093A6040C
:1012E000C0917D04C83008F0C0E085EF0E94C307BC
:1012F00090E2C99FB00111248F71682B85EF0E9485
:101300007806C0917E04C83008F0C0E085EF0E94E6
:10131000C30794E0C99FB0011124837E682B85EF39
:101320000E947806E0918004C1E0E13120F4F0E011
:10133000E15AFE4FC08184EF0E94C307D82F80E09E
:101340000E94260884EF0E94C30794E0C99FB00161
:101350001124837E682B84EF0E9478068D2F837082
:101360000E942608E0918104C1E0E13120F4F0E020
:10137000E15AFE4FC08184EF0E94C307D82F80E05E
:101380000E94260882EF0E94C307887F682F6C2B7B
:1013900082EF0E9478068D2F83700E942608E091CC
:1013A0007F04C1E0E13120F4F0E0E15AFE4FC0815A
:1013B00084EF0E94C307D82F80E00E94260884EFA4
:1013C0000E94C30790E2C99FB00111248F71682B5E
:1013D00084EF0E9478068D2F83700E94260883E098
:1013E0000E94260880EDDF91CF910C94C307809175
:1013F000AB04813009F049CE0E94B60246CE0E946D
:101400002B058CB58C7F82608CBD8DB581608DBDC8
:101410008CB58F7D8CBD8CB58C608CBD80917B0430
:101420000E944B0261E080917B040E946A022DCEF3
:10143000DF91CF910895FF920F931F93CF93DF9386
:10144000182FF92EC62F042F80917904882349F094
:10145000813009F44FC0DF91CF911F910F91FF9020
:1014600008952091AB042130B1F78091AC049091A4
:10147000AD0430917A042093E60230930803109271
:10148000E70210920903DC01ED91FC910190F081DB
:10149000E02D09958091AC049091AD040E94250542
:1014A000402F60917A048091AC049091AD040E9429
:1014B0003A07C12FDF2D8091AC049091AD04DC017F
:1014C000ED91FC910084F185E02D0995892B19F2AD
:1014D0008C2F811B801708F0BECF8091AC049091B7
:1014E000AD04DC01ED91FC910284F385E02D0995BA
:1014F0008993E1CF60E080917B040E946A028C2F87
:101500000E947106C12FDF2D80E00E947106899331
:101510008C2F811B8017C0F361E080917B04DF91E9
:10152000CF911F910F91FF900C946A02682F80E475
:101530000E94000210929D0280939E020895CF9314
:1015400091E09093E60290E4909308031092E702F2
:1015500010920903682F87EA93E00E94DB0487EA70
:1015600093E00E94250564E670E080E090E00E9430
:101570000D0383E090E00E94960A80919E02909174
:101580009D02891B990B039781F487EA93E00E94DF
:101590009B04C82F87EA93E00E949B048C7F9927C5
:1015A00020E0822B9C2BCF91089584E690E0FBCF26
:1015B0001F93CF93DF9300D0CDB7DEB70E94B60262
:1015C00087EA93E09093AD048093AC0481E080932C
:1015D000AB04109279040E943508883541F00E94CE
:1015E0003508803621F010925101109250010E946E
:1015F000B60281E08093E60280E4809308031092B3
:10160000E702109209038CEF90E00E940A0589EC32
:1016100090E00E940A0587EA93E00E94250581E098
:1016200090E00E94960A87EA93E00E949B0485312D
:10163000F1F587E991E00E94230784E48093B204E6
:101640000E94B60210E010618091B20491E0909384
:10165000E602809308031092E7021092090381E0EA
:1016600090E00E940A0566EC87EA93E00E94DB04A2
:10167000612F87EA93E00E94DB0487EA93E00E94EF
:10168000250581E090E00E940F05892B21F4CE0111
:1016900001960E94430781E090E090932F01809390
:1016A0002E010F900F90DF91CF911F9108958233FB
:1016B00019F484EA91E0BFCF81EB91E00E94230707
:1016C0001092310110923001B8CFEFE3F2E0808147
:1016D000877F8F7E808310923B0210923C02109293
:1016E0003D0210923E0244E050E070E060E085E987
:1016F00092E00C9483220F931F93CF93DF93EC011E
:10170000E0E06115710551F0FB0101900020E9F75F
:101710003197E61BF70BE931F10500F50E2F10E0CC
:101720008B818770980193E0220F331F9A95E1F720
:10173000822B8B838C818F718C83EE2329F0A801FF
:10174000CE0107960E946C27FE01E00FF11F178261
:10175000CE01DF91CF911F910F910895E9E1DECF86
:10176000FC012481229526952770213011F4878170
:101770000895211104C007960E94521D089580E02B
:101780000895CF92DF92EF92FF920F931F93CF9322
:10179000DF937B01142F022F90E59CBD1DBC2A987E
:1017A000E0E1F0E03197F1F70E947106E701115096
:1017B000A0F0002349F08FEF0E947106E114F104BC
:1017C000B1F388832196F3CF6E018FEFC81AD80A40
:1017D00088810E947106E601EACF2A9AE0E1F0E0F2
:1017E0003197F1F7DF91CF911F910F91FF90EF901B
:1017F000DF90CF900895CF93DF931F92CDB7DEB7E0
:10180000698320E041E0BE016F5F7F4F0E94C10B02
:101810000F90DF91CF91089529986EE080E20E94A9
:10182000FB0B84E293E20197F1F7089529986CE0AD
:1018300080E20C94FB0B80914002982F90779037B8
:1018400059F0982F92959F709F5F97709295907F17
:101850008F78892B8093400280913F028B7F8F7E0F
:1018600080933F020C94160C6FE080E20E94FB0B09
:1018700060915A016F3F19F08AE20E94FB0B299A8E
:101880000895CF93C82F809395028F3F51F0809396
:101890005A0163E082E20E94FB0B61E081E20E9458
:1018A000FB0B0E94340C6C2F90E080E00E94A3227E
:1018B00081E0CF91089521E041E070E060E00C9478
:1018C000C10B20E040E070E060E00C94C10BEF92AF
:1018D000FF920F931F93CF93DF93182F7B0180917B
:1018E0009502FB0180834381C0E242FD05C046951D
:1018F00046954695C7E0C40FD09198020D2F017010
:10190000299880E091E00197F1F76EE080E20E9473
:10191000FB0B84EC90E00197F1F7612F8AE20E94C3
:10192000FB0B612F80E30E94FB0B81EE0E94610C98
:101930001F3F11F080EA011180EB4C2FC13208F0FB
:1019400040E220E0B7010E94C10B299AF12CE12C62
:101950008FEF0E94610CC82F807321F4F1E0EF1A21
:10196000F108B1F7299860E387E20E94FB0BC4FFFE
:1019700003C081EE0E94610C0E94340CC5FDD1E0D1
:1019800081E01F3F09F080E0D1708D2BDF91CF9176
:101990001F910F91FF90EF9008950F931F93CF9396
:1019A0008C01FC01828190913F0290FF04C08F3F27
:1019B00051F5CFEF04C0811116C0C0919602B80155
:1019C0008C2F0E94670C909196029C1313C09091EB
:1019D0004002811113C021E0290F2F70907F922BBC
:1019E0009093400207C08F3F21F3B8010E94670C1B
:1019F000882319F3CF911F910F910895907F9093B1
:101A0000400281E0F7CF80E0F5CF20913F0222FD38
:101A10000C94CD0C80E00895FC01809195028183A7
:101A20009481907F916094838091940280FF03C0A1
:101A3000CF010C94050D80E00895FC01258128312B
:101A4000E9F426812731D1F40E94B00B91E0811195
:101A500001C090E09093F8018091B6038770886090
:101A60008093B6038091B7038F7180628093B70330
:101A70009093BA0383EB93E00C940C0D089590912E
:101A800095029093B4041092B5048093B9046093C6
:101A9000B8049091B704907E9093B7048F3F11F4EF
:101AA00045EC51E0BA0183EB94E00E947B0B0C946F
:101AB000050D809195028F3F21F50E9440036F3FF5
:101AC000E9F060931B0180911B0190919502909326
:101AD000B4041092B5048093B90483E08093B804F1
:101AE0008091B704807E83608093B70466E971E0DB
:101AF00083EB94E00E947B0B0C94CD0C10921B01A5
:101B0000E2CF0895EFE3F2E08081897F81608083F6
:101B1000A5E9B2E08FEF12968C93129711968C93F1
:101B20001197E3EBF4E09C9191838283868387E0B5
:101B300085838481807E8360848366E971E0CF0140
:101B40000E947B0B0C94CD0CCF93219A229A29985A
:101B50002A9A0E942B050E940C0C63E083E20E94EB
:101B6000FB0B6FE584E20E94FB0B6CE485E20E94B4
:101B7000FB0B63E286E20E94FB0B64E08DE30E94B4
:101B8000FB0B8DE10E945B0C843041F063E780E544
:101B90000E94FB0B64E08DE30E94FB0B86E00E9439
:101BA0005B0C833209F04DC085E00E945B0C8C34E5
:101BB00009F047C062E082E20E94FB0B60E081E234
:101BC0000E94FB0B63E08CE30E94FB0BCFEFC09302
:101BD000020120E045E062E071E08BE20E94C10B6F
:101BE00020E045E062E071E08AE20E94C10B20E063
:101BF00045E062E071E080E30E94C10B82EE0E944A
:101C0000610C81EE0E94610C60E787E20E94FB0B91
:101C100080913F02806180933F02809198028E7F85
:101C200080939802809195028F3F19F487E191E0AB
:101C30000AC09FEF980F9E3F48F40E94410C81110B
:101C4000F5CF87E091E0CF910C94C705C093950242
:101C5000F8CF2F923F924F925F926F927F928F9226
:101C60009F92AF92BF92CF92DF92EF92FF920F932B
:101C70001F93CF93DF9300D0CDB7DEB780913F02A3
:101C800084FB222420F884FF08C206E0E9E13E2E0E
:101C9000F5E18F2EA0E0CA2EA0E0DA2EB3EAFB2EEB
:101CA00044244A945524539413E0612E12E0712E7B
:101CB00086E1982E9FE1E92EA12CBB24BA9487E1FE
:101CC0000E945B0C80FDE9C1015009F4E6C121E0EE
:101CD00041E070E060E080E60E94C10B89838132C0
:101CE00020F082EE0E94610C198221E0498164EDAE
:101CF00074E081E60E94C10B60E487E20E94FB0B66
:101D00006091D704862F8695869586958A3108F04E
:101D100089E197E0980F62FD90E229819213CFCF7D
:101D2000962F9370923059F64091D804942F977063
:101D30009983E091D904EA831091D5049091D40459
:101D40005091D60430914002306830934002309177
:101D5000950253136CC190E067709C0173E0220FF1
:101D6000331F7A95E1F7262B2093D7048C529B4F93
:101D7000FC01178243FF15C081E2E4EDF4E0A3EB20
:101D8000B4E001900D928A95E1F7477F406140935E
:101D9000B7045093B4041093B50483EB94E00E940D
:101DA000050D9091D80494FD3AC1F981F33009F002
:101DB00036C18091D90421EF280F233008F47FCF5A
:101DC0002A812430C1F48091DA0490911B01891793
:101DD00019F08F3F09F073CF84ED94E00E94B00BAF
:101DE0009FEF980F9E3F18F40E94410C68CF8FEF31
:101DF0008093950264CFEA81E830E9F4F0913F02E4
:101E0000F983F0FF5CCF84ED94E00E94B00B8F3F2C
:101E100009F455CF8F5F8F3F09F451CF909197020E
:101E2000891708F04CCF298121FD49CF8093970273
:101E30001093960244CFEA81E831B9F4809195027B
:101E40008093B4041093B504FFEFF093B90430927B
:101E5000B8048091B704807E83608093B70461E00A
:101E600083EB94E00E949D0531C02A81293171F4F1
:101E700080913F0283FF23CF877F80933F0284EDD1
:101E800094E00E94B00B8093410219CFEA81EE31B9
:101E900009F415CFED31E9F4809195028093B404F3
:101EA0001092B504FFEFF093B904E092B80483E414
:101EB0008093B7048091B604877080618093B604E4
:101EC000B092BB04A092BA0483EB94E00E94CD0CC4
:101ED000F6CE2091D5042111A7C08D3059F488E1A8
:101EE00098E00FB6F894A895809360000FBE909389
:101EF0006000FFCF8B3179F484ED94E00E94B00B49
:101F000091E0811101C090E08091940290FB80F9F2
:101F100080939402D4CE8630A1F49091DB04822D7C
:101F2000992321F081E09D3409F080E080939302B1
:101F300041E050E063E071E083E992E00E94932287
:101F4000BECE833119F40E94F617B9CE823111F555
:101F50000E94B405209195022093B4041092B50418
:101F60002FEF2093B9049092B804F092B704209117
:101F7000B604277020622093B6046093BA0470936D
:101F8000BB048093BC049093BD0483EB94E00E9457
:101F9000050D95CE8230E1F4909195029093B404B2
:101FA0001092B5049FEF9093B9048093B804F09217
:101FB000B7048091B604877080628093B604409223
:101FC000BA045092BB046092BC047092BD04DDCF91
:101FD0008130F9F4C114D10409F471CE929596952B
:101FE0009770953059F46091DB047091DC04809116
:101FF000DD049091DE040E94000061CE911105C0C5
:102000008BED94E00E94701DF6CF60E070E0CB0194
:10201000F2CF8A3009F453CE8C3109F450CE84EDDE
:1020200094E00E941D0D4BCE8A31C9F748CE5F3F28
:1020300009F045CEE981E33059F580913F0282FFF6
:1020400004C0FA81F73009F43ACE2A81243109F02C
:1020500036CE80919602981332CE0E944003737060
:10206000882799270E940D03809195028093B404DC
:102070001093B5048FEF8093B9048092B8048091D7
:10208000B704807E83608093B70460919602E8CEA7
:1020900080919602981313CEC2CF0F900F90DF91CC
:1020A000CF911F910F91FF90EF90DF90CF90BF9055
:1020B000AF909F908F907F906F905F904F903F90E8
:1020C0002F9008952F923F924F925F926F927F923E
:1020D0008F929F92AF92BF92CF92DF92EF92FF9238
:1020E0000F931F93CF93DF93CDB7DEB76A970FB6E9
:1020F000F894DEBF0FBECDBF809154019091550181
:1021000001969093550180935401809150019091D4
:102110005101019709F0C0C381E00E94260842E006
:102120006DEFCE0101960E941B0A8090A70490904B
:10213000A804A090A904B090AA040CE2901A01E0AF
:10214000A00AB108C980DA80DC24CD24DC24F12C7B
:10215000E12C3EE0CC0CDD1CEE1CFF1C3A95D1F7C7
:102160008091A2049091A304092E000CAA0BBB0B32
:1021700044E1880F991FAA1FBB1F4A95D1F7C81ABF
:10218000D90AEA0AFB0AA091A404B091A504A5010A
:1021900094010E940926C61AD70AE80AF90A10E42F
:1021A000D10EE11CF11C6FE0F594E794D794C7942D
:1021B0006A95D1F7A091A104B0E00E94B5222B014D
:1021C0003C017BE075946794579447947A95D1F7D6
:1021D00020E8520E611C711CA091A6040A2E000C6E
:1021E000BB0B94010E940926EAE0959587957795A7
:1021F0006795EA95D1F7A30192010E94F9259B0109
:10220000AC01FAE05595479537952795FA95D1F7A2
:10221000405E5F4FA0919F04B091A0040E940926E8
:10222000705E8F4F9F4FAEE0959587957795679538
:10223000AA95D1F7A70196010E94F9256B017C01AF
:10224000BFE09595879577956795BA95D1F79B01EE
:10225000AC010E94F9259B01AC0117E0559547950B
:10226000379527951A95D1F7A0919E04B0E00E946A
:10227000B52204E095958795779567950A95D1F7EE
:10228000C61AD70AE80AF90AF7FE03C0C12CD12CF6
:102290007601C701B60161307105810509E190073A
:1022A00024F060E070E080E099E12CE0959587955E
:1022B000779567952A95D1F70E94632120E030E059
:1022C00040E85AE30E94C2216B017C0105E212E062
:1022D00021E040E00E94301D86E491E00E944E1D06
:1022E0009B01AC01C701B6010E9406239F772AE932
:1022F00039E949E95EE30E946F2418167CF4B801BD
:1023000086E194E00E947B0B0E940C0D06E411E034
:1023100021E040E0C701B6010E94301D43E06AEFB2
:10232000CE0101960E941B0A898190E0B0E0A0E0F6
:102330000CE0880F991FAA1FBB1F0A95D1F74A818D
:1023400050E070E060E024E0440F551F661F771FE7
:102350002A95D1F7842B952BA62BB72B2B81229571
:102360002F70822B409186045091870470E060E0CA
:102370006C017D0134E0F594E794D794C7943A95C5
:10238000D1F7C41AD50AE60AF70AE3E0B595A7958E
:1023900097958795EA95D1F7440F551F661F771FCC
:1023A0004C015D01841A950AA60AB70AA501940199
:1023B000A0918804B09189040E9409264B015C0118
:1023C000ABE0B594A79497948794AA95D1F7A70109
:1023D0009601C701B6010E94F9259B01AC01BCE042
:1023E0005595479537952795BA95D1F7A0918A04C9
:1023F000B0918B040E9409269B01AC011EE055950B
:102400004795379527951A95D1F7280D391D4A1DFF
:102410005B1D2093A7043093A8044093A904509314
:10242000AA04A5E0B0E00E94B52260587F4F8F4F0C
:102430009F4F672F782F892F992787FD9A950E94A4
:10244000632120E030E048EC52E40E9473232091A5
:1024500082043091830440918404509185040E9449
:1024600007236B017C010BE112E021E040E00E94B8
:10247000301D6CE371E0C8010E946327892B79F05D
:10248000B80187E394E00E947B0B0E940C0D0CE3E3
:1024900011E021E040E0C701B6010E94301D43E099
:1024A00067EFCE0101960E941B0A8091A7049091CC
:1024B000A804A091A904B091AA046C017D01FF0CAD
:1024C000CC08DC2C76019C01AD016C2D7C2D8C2D73
:1024D0009C2D345F414051096109710981099109BD
:1024E0002C873D874E875F87688B772E4C0159017B
:1024F0006A01E62EF72E8C010E941126622E532EC1
:10250000442E352E262E788F898F9A8F30918F0406
:1025100020918E04932F990F990B492F592F692FD2
:10252000792F892F0E9411260CE00E9409272C8305
:10253000398B4A8B5B8B6C8B7D8B8E8B9F8B309119
:10254000910420919004932F990F990BA62CB52CF0
:10255000C42CD32CE22CF88C098D1A8D492F592FBD
:10256000692F792F892F0E94112608E00E942227C7
:10257000AC80B988CA88DB88EC88FD880E891F8901
:102580000E943F2770588F4F9F4FE0918C04F0912D
:102590008D045F01D12CC12CE12CF12C8701EC833F
:1025A000BD82CE82DF82E886F9860A871B87C12C2E
:1025B000D12CE12CF12C00E010E00E94112601E268
:1025C0000E9422272C83398B4A8B5B8B6C8B7D8BF3
:1025D0008E8B9F8BA0E00E94512709F461C330913C
:1025E000970420919604932F990F990BA62CB52C44
:1025F000C42CD32CE22CF88C098D1A8D492F592F1D
:10260000692F792F892F0E94112619012A01662E20
:10261000788F898F9A8F3091950420919404932F0D
:10262000990F990BAC84BD84CE84DF84E888F72CA5
:102630008401492F592F692F792F892F0E94112644
:1026400001E10E94092751016201E62CF88C098DF5
:102650001A8D0E943F2759016A017B01182F392EDC
:102660008A8190E0B0E0A0E044E0880F991FAA1FA3
:10267000BB1F4A95D1F72B8122952F70822B498160
:1026800050E070E060E0ECE0440F551F661F771FDC
:10269000EA95D1F7482B592B6A2B7B2B80E090E0F1
:1026A000A0E1B0E0841B950BA60BB70B2C013D01FC
:1026B000770C4408542C32019C01AD01642D742D1B
:1026C000842D942D0FE10E94092739014A01B62F6C
:1026D000A72FF82FE92F3091930420919204932F84
:1026E000990F990B492F592F692F792F892F03E2C1
:1026F0000E940927012F132D0E943F2759016A01CB
:102700007B018C019301A4016B2F7A2F8F2F9E2FB9
:102710000E944827A5E3AA2EBCE0BB2EC12CD12CD9
:10272000E12CF12C00E010E00E941126AC80B98869
:10273000CA88DB88EC88FD880E891F890E946B2679
:102740002C873D874E875F87688B7C83898B9A8B2C
:102750000DE00E942227922E832E742E652E562E77
:10276000472E382E292E30919D0420919C04932FC2
:10277000990F990BA92CB82CC72CD62CE52CF42C2E
:10278000032D122D492F592F692F792F892F0E9440
:1027900011260E94112609E10E942227AC84BD84E3
:1027A000CE84DF84E888FC8009891A890E943F274B
:1027B00019012A013B014C0130919B0420919A049C
:1027C000932F990F990B492F592F692F792F892F03
:1027D0000E94112603E10E94222759016A017B0110
:1027E0008C019101A201B301C4010E943F2708E0BE
:1027F0000E94222759016A017B01E82F192F30918D
:10280000990420919804932F990F990B492F592FD0
:10281000692F792F892F04E00E9409270E2F0E942B
:102820003F270E941B2420E030E040E85BE30E9449
:10283000C22120E030E048EC52E40E9473236B0197
:102840007C0101E112E021E040E00E94301D82E3C2
:1028500091E00E944E1D9B01AC01C701B6010E9490
:1028600006239F772AE939E949E95EE30E946F244C
:1028700018167CF4B80185EF93E00E947B0B0E9450
:102880000C0D02E311E021E040E0C701B6010E9417
:10289000301D80E00E942608809130019091310126
:1028A000019709F07CC085EF0E949F0ABC0190E06F
:1028B00080E00E94612120E030E04AEF52E40E9473
:1028C000C22120E030E040E857E30E94C22120E02E
:1028D00030E040EC50E40E9406236B017C0107E0ED
:1028E00012E021E040E00E94301D86E491E00E9469
:1028F0004E1D9B01AC01C701B6010E9406239F77C4
:102900002AE939E949E95EE30E946F2418167CF44C
:10291000B80186E194E00E947B0B0E940C0D06E456
:1029200011E021E040E0C701B6010E94301D83EFB5
:102930000E949F0ABC0190E080E00E94612122E594
:1029400038EB4FE253E40E94C22120E030E040E83F
:1029500057E30E94C22126E636E64BE352E40E948A
:1029600006236B017C010DEF11E021E040E00E94A5
:10297000301D6CE371E0C8010E946327892B79F058
:10298000B80187E394E00E947B0B0E940C0D0CE3DE
:1029900011E021E040E0C701B6010E94301D8091A6
:1029A0002E0190912F01019709F0B7C090E080E0CF
:1029B0000E940F05892B09F077C1CE0101960E9474
:1029C0004307892B09F070C11A81612F62956F70DE
:1029D00070E090E080E00E9461219B01AC0160E02A
:1029E00070E080E090E40E9474244B015C016981F6
:1029F000712F7F70072E000C880B990B0E946321AA
:102A00006B017C012AE037ED43E25CE3C501B401D0
:102A10000E94C2219B01AC01C701B6010E94C221E4
:102A20000E94E5236B017C018091F9019091FA01EC
:102A3000A091FB01B091FC01C816D906EA06FB067D
:102A400009F46BC046015701881A990AAA0ABB0A01
:102A5000B7FE08C0B094A09490948094811C911CFF
:102A6000A11CB11C06E080169104A104B1040CF471
:102A70001FC119ECC116D104E104F10404F58091E1
:102A80005C048F71806880935C0480915B04877024
:102A9000806280935B04C0925F04D0926004E092F5
:102AA0006104F092620488E594E00E940C0DC092EB
:102AB000F901D092FA01E092FB01F092FC0125E1CC
:102AC00082169104A104B1040CF4F2C088ECC8167B
:102AD000D104E104F1040CF4EBC080915C048F712B
:102AE000806880935C0480915B048770806280932F
:102AF0005B04C0925F04D0926004E0926104F092A3
:102B0000620488E594E00E940C0DC092F901D09215
:102B1000FA01E092FB01F092FC0180915401909146
:102B20005501813D924009F084C08091520110E42A
:102B3000819FC0011124816080937C0080917A0084
:102B4000806480937A0080917A0086FDFCCF80912A
:102B5000780060917900762F682F072E000C880B83
:102B6000990B0E94632129E037E64CE55BE30E9464
:102B7000C2216B017C018090310290903202A090C2
:102B80003302B090340223E333E343E550E40E9480
:102B90006F2418160CF0B2C084E690E090933002D7
:102BA00080932F02A5019401C701B6010E945C2108
:102BB0008823D9F160912F02809195028093B4040B
:102BC0001092B5048FEF8093B9041092B8048091ED
:102BD000B704807E83608093B70483EB94E00E9407
:102BE0009D050E94050D8091D703877088628093B0
:102BF000D7038091D803806E8093D803C092DB0303
:102C0000D092DC03E092DD03F092DE0382E0809359
:102C1000DF0384ED93E00E940C0DC0923102D0924C
:102C20003202E0923302F092340210925501109277
:102C3000540180913F0282FF8BC00E94160C30E647
:102C4000C32E3AEED32EE12CF12C2FE0C20ED11C74
:102C5000E11CF11C01E010E0809153018F3F09F06D
:102C6000B1C080E1C816D104E104F10408F4AAC09F
:102C700089E094E0980F480102C0880C991C9A954D
:102C8000E2F7B12CA12CC814D904EA04FB0408F41F
:102C900097C00E94C606C818D908EA08FB08DCCF0E
:102CA00060E070E0CB01C5CD60E070E0CB01B8CE54
:102CB000CD28CE28CF2809F030CF80915C048F71C9
:102CC000806880935C0480915B048770806280934D
:102CD0005B0410925F0410926004109261041092E1
:102CE000620488E594E00E940C0D1092F9011092A4
:102CF000FA011092FB011092FC010FCF23E333E3A2
:102D000043EF5FE3C701B6010E945C2187FF05C066
:102D10001092300210922F0245CF23E333E343EFAA
:102D20005FE3C701B6010E94062323E333E343EBCD
:102D30005FE30E94732320E030E048EC52E40E94FD
:102D4000C2210E94E5237093300260932F022ACFA4
:102D50000E9440036B017C0180E090E0DC01209147
:102D60003F0222FD1AC080362AEE9207A105B10566
:102D7000A0F5803107E29007A105B105A0F4A89560
:102D80000E94A9050E94290E0E944003DC01CB018C
:102D90008C199D09AE09BF09E2CF80361AEE910762
:102DA000A105B105D0F420E6C22E2AEED22EE12CE8
:102DB000F12CC81AD90AEA0AFB0A0E94160C45CF60
:102DC000815057CF809153018F3F11F08091530173
:102DD0008FEF809353010E940C0C6A960FB6F89403
:102DE000DEBF0FBECDBFDF91CF911F910F91FF903E
:102DF000EF90DF90CF90BF90AF909F908F907F909B
:102E00006F905F904F903F902F900895CF92DF92F8
:102E1000EF92FF92CF93DF93D82F0E9440036B0174
:102E20007C011092D904C0E00E9440036C197D0916
:102E30008E099F09603D77408105910590F4C1118D
:102E400010C0A8950E94A9050E94290E8091D8045F
:102E50008770833049F7C1E08091D9048D13E3CFA7
:102E6000E3CF8C2FDF91CF91FF90EF90DF90CF9049
:102E700008958F929F92AF92BF92CF92DF92EF927E
:102E8000FF924B015C010E9440036B017C010E9498
:102E900040036C197D098E099F09681579058A051B
:102EA0009B0530F4A8950E94A9050E94290EEFCF3A
:102EB000FF90EF90DF90CF90BF90AF909F908F905A
:102EC0000895CF93809195028093B4041092B50435
:102ED000CFEFC093B9048BE08093B8048091B7041E
:102EE000807E83608093B70460E271E083EB94E0BE
:102EF0000E947B0B0E94050D809195028093B40483
:102F00001092B504C093B9048CE08093B80480910A
:102F1000B704807E83608093B7046CE171E083EB3B
:102F200094E00E947B0B0E94050D62E370E080E05C
:102F300090E00E94391780915001909151010197C2
:102F400031F08091300190913101019791F44BEC77
:102F500051E067E084E00E943F0D62E370E080E0B2
:102F600090E00E94391744ED51E066E083E00E9452
:102F70003F0D62E370E080E090E00E94391780919D
:102F8000500190915101019731F440EE51E068E019
:102F900085E00E943F0D62E370E080E090E00E94D7
:102FA000391780912E0190912F01019731F449EE4C
:102FB00051E060E182E00E943F0D62E370E080E05A
:102FC00090E00E9439174DEE51E06EE18EEF0E94C5
:102FD0003F0D62E370E080E090E00E94391741EF1E
:102FE00051E068E187E1CF910C943F0DFF920F9380
:102FF0001F93CF93DF93C3EBD4E005E912E0F80110
:10300000808189831A82FF24FA94FE828FE08D8367
:103010008C81807E83608C8366E971E0CE010E94A2
:103020007B0B8B81877080618B838C818F71806C2F
:103030008C8381E08F831886CE010E94050D8FE07E
:103040000E94061746E951E061E18FEF0E943F0DB3
:10305000F801808189831A82FE8286E08D838C81CB
:10306000807E83608C836181CE010E949D050E94D9
:10307000050D86E00E940617DF91CF911F910F91F9
:10308000FF900C9461171F93CF93DF93809194026C
:1030900081FD2DC00E94F61780919402816080937B
:1030A0009402C4E0DFEF1AE1809195028093B404AA
:1030B0001092B504D093B9041093B8048091B7046A
:1030C000807E83608093B70462E083EB94E00E948B
:1030D0009D050E94050D8BE10E940617811102C01B
:1030E000C15011F780919402826080939402DF9125
:1030F000CF911F910895CF92DF92EF92FF92CF93DD
:10310000DF9388E00E944B0283E0809352010E948B
:103110004003C0903B02D0903C02E0903D02F09012
:103120003E026C197D098E099F0960317742810545
:10313000910530F180913F0283FBCC27C0F983FDDC
:10314000B3C090919502911170C01092410280918C
:103150003F02877F80933F02C0914102CF3F09F435
:10316000A3C00E94400360933B0270933C02809393
:103170003D0290933E02809197028C13C093970278
:1031800080913F0282FF04C061E082E00E945E0500
:10319000809195028093B4041092B50487E18093E6
:1031A000B90488E18093B8048091B704807E82607E
:1031B0008093B70466E971E083EB94E00E947B0B97
:1031C0000E94050D68EE73E080E090E00E943917E0
:1031D0008091F801882309F46CC0D0E0C0E06FEF63
:1031E000CE010E94A3222196CD39F1E0DF07B9F785
:1031F0008091B7038F7180648093B7038091B60389
:10320000877080618093B6031092BB031092BA035B
:1032100083EB93E00E940C0DF0E0E0E0DF91CF91B2
:10322000FF90EF90DF90CF900994886080933F02E9
:103230008FEF809341029093B4041092B504809371
:10324000B90488E18093B8048091B704807E8360DC
:103250008093B70461E083EB94E00E949D050E9497
:10326000CD0C0E9440036B017C011092D9040E9496
:1032700040036C197D098E099F09603D77408105E7
:10328000910508F064CFC11162CF0E94290EA89564
:103290008091D8048770833051F7C1E08091D904C0
:1032A000893129F3C0E0E3CF62E084E00E945E054B
:1032B00067CFDF91CF91FF90EF90DF90CF9008958F
:1032C0001F920F920FB60F9211242F933F938F935B
:1032D0009F93AF93BF9380918B0290918C02A091AA
:1032E0008D02B0918E0230918A0226E0230F2D3795
:1032F00058F50296A11DB11D20938A0280938B027E
:1033000090938C02A0938D02B0938E0280918F02D5
:1033100090919002A0919102B09192020196A11D0C
:10332000B11D80938F0290939002A0939102B0936D
:103330009202BF91AF919F918F913F912F910F90EA
:103340000FBE0F901F90189529E8230F0396A11D1B
:10335000B11DD2CF1F920F920FB60F9211242F934F
:103360003F934F935F936F937F938F939F93AF930D
:10337000BF93EF93FF93E0915D01F0915E0109959A
:10338000FF91EF91BF91AF919F918F917F916F913D
:103390005F914F913F912F910F900FBE0F901F9013
:1033A00018951F920F920FB60F9211242F933F93EF
:1033B0004F935F936F937F938F939F93AF93BF933D
:1033C000EF93FF93E0915B01F0915C010995FF9110
:1033D000EF91BF91AF919F918F917F916F915F918D
:1033E0004F913F912F910F900FBE0F901F90189506
:1033F0001F920F920FB60F9211242F933F934F936A
:103400005F936F937F938F939F93AF93BF93EF934C
:10341000FF938AE093E00E94C103FF91EF91BF9177
:10342000AF919F918F917F916F915F914F913F915C
:103430002F910F900FBE0F901F9018951F920F9213
:103440000FB60F9211242F938F939F93EF93FF93B7
:10345000E0911A03F0911B038081E0912003F09129
:10346000210382FD1BC09081809123038F5F8F73A6
:1034700020912403821741F0E0912303F0E0E65FFE
:10348000FC4F958F80932303FF91EF919F918F9134
:103490002F910F900FBE0F901F9018958081F4CF41
:1034A0001F920F920FB60F9211242F933F934F93B9
:1034B0005F936F937F938F939F93AF93BF93EF939C
:1034C000FF938091B900887F803609F44AC0F0F5F7
:1034D000883209F4A7C018F5803109F49BC0B8F40C
:1034E000882309F4F9C0883009F494C0FF91EF9162
:1034F000BF91AF919F918F917F916F915F914F910C
:103500003F912F910F900FBE0F901F90189588310B
:1035100009F488C0803251F78093E30214C08034EC
:1035200009F49DC040F48033B9F38833F9F68093F1
:10353000E30285ECB0C0803509F485C0883509F414
:1035400096C0883499F60E945A04D0CF883909F47D
:103550008CC038F5883729F050F4883611F0803760
:1035600029F683E08093E5021092890257C08838DB
:1035700009F47BC0803919F0803809F0B7CF809109
:103580008902803208F071C0E091890281E08E0FDB
:10359000809389028091BB00F0E0E759FD4F808362
:1035A0003DC0803B39F0E0F4803A09F479C0883AB4
:1035B00009F09CCF84E08093E5021092680210929B
:1035C0006702E0919B02F0919C020995809167024D
:1035D00081110FC081E0809367021092470209C0F9
:1035E000803C09F4A6CF883C09F4A3CF883B09F0BE
:1035F0007DCFE091680281E08E0F80936802F0E059
:10360000E95BFD4F80818093BB00909168028091BF
:10361000670229C08091C0028093BB0085EC809333
:10362000BC0064CF9091E2028091E102981758F5B6
:10363000E091E20281E08E0F8093E202F0E0EF532E
:10364000FD4F8081E9CFE091E20281E08E0F80930F
:10365000E2028091BB00F0E0EF53FD4F8083909138
:10366000E2028091E1029817C8F285E8D8CFE09194
:10367000E20281E08E0F8093E2028091BB00F0E0D5
:10368000EF53FD4F80838091E40281115CCF81E094
:103690008093BF0284EA8093BC001092E50226CF9B
:1036A00085EC8093BC001092E50280918902803203
:1036B00030F4E0918902F0E0E759FD4F108260910B
:1036C000890270E0E0919902F0919A0289E692E015
:1036D0000995109289020ACF1092E30234CF1F920B
:1036E0000F920FB60F9211240F900FBE0F901F90E4
:1036F0001895CF93DF93FC011082118212821482FD
:1037000015821682DC0117968AE1ED0119928A95DD
:10371000E9F782E08383DF91CF9108950F931F93A0
:10372000CF93EAE0F3E01382128288EE93E0A0E008
:10373000B0E084839583A683B78324E731E03183A7
:10374000208325EC30E03587248724EC30E0378770
:10375000268720EC30E0318B208B21EC30E0338B5E
:10376000228B22EC30E0358B248B26EC30E0378B3B
:10377000268B118E128E138E148E07EA13E0F80139
:103780001382128284839583A683B78386E891E0AF
:103790009183808384ED94E00E94791B83EB94E015
:1037A0000E94791BE9E7F4E0C1E0C2AB80E896EE45
:1037B000A5ECB7E485AB96ABA7ABB0AF108287E7BB
:1037C000818314AB03AB8AE0828313E013831482FA
:1037D0001582C683C783C087118612861386148616
:1037E00088E594E00E94791BE8E5F4E082E08683B6
:1037F00085E2858387E394E00E94791BE7E3F4E0A8
:103800001683158286E194E00E94791BE6E1F4E0DC
:1038100014E01683C58385EF93E00E94791BE5EFE2
:10382000F3E085E08683158384ED93E00E94791BA5
:10383000E4EDF3E08EEF868386E2858383EB93E00D
:103840000E94791BE3EBF3E087E1868388E18583BF
:10385000CF911F910F910895789484B5826084BDB3
:1038600084B5816084BD85B5826085BD85B5816084
:1038700085BD80916E00816080936E001092810002
:1038800080918100826080938100809181008160BD
:10389000809381008091800081608093800080917E
:1038A000B10084608093B1008091B000816080930A
:1038B000B00080917A00846080937A0080917A00D1
:1038C000826080937A0080917A008E7F80937A0064
:1038D00080917A00806880937A001092C100A89548
:1038E00080E090E0892B11F00E940000E0911A0323
:1038F000F0911B0382E08083E0911603F09117039F
:103900001082E0911803F091190387E680831092EA
:103910002203E0911E03F0911F0386E08083E09173
:103920001C03F0911D03808180618083E0911C0362
:10393000F0911D03808188608083E0911C03F091E9
:103940001D03808180688083E0911C03F0911D033A
:1039500080818F7D8083C0E1D0E0F12CFE01F59560
:10396000E795EA5DFD4FE491C0FF6CC0EF70E83071
:1039700008F06AC0F0E0EA5DFD4FF4906F2D8AE038
:1039800093E00E94E3032196C23FD10539F7CFE1CE
:10399000D2E0FE016491662339F08AE093E00E9450
:1039A000E3032196892BA9F70E941B0780919402BB
:1039B0008D7F809394020E94D80A41E050E063E03A
:1039C00071E083E992E00E9483226FEF81E090E052
:1039D0000E94A322809140028F788093400210922F
:1039E00036021092350286E591E00E94C70583E415
:1039F00098E190934502809344020E9440030E9404
:103A000040030E94A9050E94290E80913F0282FB7B
:103A1000882780F9A895882391F30E947B18A895A0
:103A2000C0E0D0E0A8950E94A9050E94290E0E943E
:103A300062102097B9F30E94B703882399F30E947C
:103A40000000F0CFE29592CF1BEF1E0F00E06F2D2C
:103A50008AE093E00E94E3030F5F0117C0F393CF66
:103A6000EF920F931F93CF93DF93E80134E047FD6C
:103A700034E1042E000C550B57FF03C051954195BE
:103A80005109E32E022F242FAE010E94B41DCE0156
:103A9000DF91CF911F910F91EF90089566277727BF
:103AA0000C94131FFC0188279927E8942191203258
:103AB000E9F3293010F02E30C8F32B3241F02D32CB
:103AC00039F4689404C00E94AC1D820F911D2191AD
:103AD00020532A30C0F31EF4909581959F4F08958E
:103AE0001F93FC0199278827BC01E894119110329B
:103AF000E9F3193010F01E30C8F31B3251F01D32BB
:103B000049F4689406C00E94971D610F711D811DC4
:103B1000911D119110531A30B0F33EF49095809599
:103B2000709561957F4F8F4F9F4F1F910895592F2B
:103B3000482F372F262F660F771F881F991F660F74
:103B4000771F881F991F620F731F841F951F660FB1
:103B5000771F881F991F08957AE0979F902D879F60
:103B6000802D910D11240895A9E0B0E0EAEBFDE16C
:103B70000C94C6226A01F22EB02E102FFBE3AF2E5A
:103B8000A01608F41BE31F5F012F27E0AE014F5F73
:103B90005F4F0E946320BC018981982F99709130FA
:103BA00009F43FC09BE2E1FC04C09E2D9170E0FC53
:103BB0003AC05E2D5071E82FE87083FF46C084E064
:103BC000911101C083E0EF2DE81B8F1508F0E0E0B4
:103BD000D6018E2F20E2552351F1992329F0D601E9
:103BE0009C93C60101966C0196012D5F3F4FE2FE4A
:103BF00024C08EE4D6018C9391E411969C93119786
:103C000012968C93D9018E2F90E281111BC0E20F86
:103C1000F32FF11D10828EEF9FEF2996ECE00C94AC
:103C2000E2229DE2C6CF90E2C4CF2D938150811154
:103C3000FCCFCE0ED11CE0E0D0CF8EE6D6018C9327
:103C400091E6DBCF9D938150E0CF482F447082FFF7
:103C50003DC084E0911101C083E08F1510F4EF2D79
:103C6000E81BD6018E2F20E2552309F1992329F074
:103C7000D6019C93C60101966C0196012D5F3F4FC2
:103C8000E2FE1BC089E4D6018C938EE411968C93DE
:103C9000119786E412968C93D9018E2F90E2882397
:103CA00009F4B5CF9D938150FACF2D9381508111A6
:103CB000FCCFCE0ED11CE0E0D9CF89E6D6018C93A3
:103CC0008EE611968C93119786E6E4CF9B0177FFE1
:103CD00002C030E020E0A1E0B0E0911102C0B0E00D
:103CE000A0E0F9013196AE0FBF1F8B2C912CBB20A9
:103CF00009F461C05401EFEFAE1ABE0AAA0DBB1D54
:103D0000FA161B0619F014F04F2D4A1B511188C0EA
:103D1000E3FC59C07601A42FB0E2A1114FC0C40E3C
:103D2000D11C992309F45BC040E0D6011196F6013D
:103D300090836D01552309F448C0012F060F9A8125
:103D4000582F507184FF03C0913309F401501016AD
:103D50000CF047C0093008F008E0EEE2FE2E5B01EF
:103D6000A01AB10885019194819491082F3F3207E0
:103D700029F4D601FC92F60131966F0162177307A0
:103D800094F1021713077CF5DB01A21BB30BAA24E5
:103D9000A394B12CAC0EBD1EAA0DBB1D11968C9127
:103DA00021503109D601119628153905F4F0F60194
:103DB00080836D01DBCFB12CA12CA0CFF701B19393
:103DC0007F01A150AACF9111B0CFD601942F50E31B
:103DD00002C05D9391509111FCCFC40ED11C40E004
:103DE000ACCF01E0BACF80E3DBCF6217730731F4C9
:103DF000963388F4953311F4552369F0F6018083E6
:103E0000FD01842F90E2811108C0A40FB11D1C9206
:103E100090E080E002CF81E3F1CF91938150F3CF26
:103E2000911183CF8ACFB0E0A0E0E9E1FFE10C94EB
:103E3000C6225C017B016115710519F0DB018D93D0
:103E40009C9385010F5F1F4FF501D0818D2F90E06E
:103E50000E943B216C01892BB9F5DD32B9F50F5F6A
:103E60001F4FD5011196DC91C1E05801F1E0AF1A66
:103E7000B10843E050E062EF70E0C5010E944421C8
:103E8000892B69F5680182E0C80ED11C45E050E03D
:103E90006DEE70E0C6010E944421892B21F4680177
:103EA00097E0C90ED11CE114F10419F0D701CD92AD
:103EB000DC9260E070E080E89FEFC111FFC060E03D
:103EC00070E080E89FE7FAC05801BBCFDB3229F4ED
:103ED00085010E5F1F4FF501D181C0E0C6CF43E0E1
:103EE00050E06AEE70E0C5010E944421892BE9F0A0
:103EF000F80110E000E020E030E0A9015F01B0ED42
:103F00008B2E8D0E89E08815C8F19C2E689491F84F
:103F10008C2F8870C2FF16C0811102C00F5F1F4F27
:103F20003196D501DC91C92DE9CFE114F10429F0D6
:103F30000E5F1F4FF7011183008360E070E080EC9B
:103F40009FE7BCC0882311F001501109A5E0B0E043
:103F50000E94B5229B01AC01220F331F441F551F45
:103F6000280D311D411D511D283999E9390749078F
:103F700099E15907A8F2C6609C2ED2CFAEEF8A1203
:103F800006C0C3FD3CC09C2E689493F8C9CFDF7D6A
:103F9000D534A9F580818D3239F4C061DF011296E4
:103FA000818162E070E006C0DF018B32C1F31196BF
:103FB00061E070E080535D01A61AB70A8A30F8F418
:103FC000E0E8CE16ECE0DE065CF4B601660F771F83
:103FD000660F771FC60ED71ECC0CDD1CC80ED11C79
:103FE0005D01FFEFAF1ABF0A8C9180538A30A8F1B0
:103FF000C4FF03C0D194C194D1080C0D1D1DC1FF95
:1040000009C0E114F10431F081E0A81AB108D70128
:10401000AD92BC92CA01B9010E946121C370C33044
:1040200009F490584B015C0120E030E0A9010E94A6
:104030005C21882309F440C0C1E2D1E017FF05C02C
:10404000119501951109C9E0D1E06E01B8E1CB1AD3
:10405000D10880E2E82EF12C0FC0D501B1CFFE01CE
:1040600025913591459154910E191F09C501B4014F
:104070000E94C2214B015C01D501C4010E151F0530
:1040800074F72497F594E794CC16DD06A9F78A2FE8
:10409000880F8B2F881F8F3F49F020E030E0A90167
:1040A000C501B4010E945C21811106C082E290E04A
:1040B0009093F6048093F504C501B401CDB7DEB743
:1040C000ECE00C94E222283008F027E03327DA01F4
:1040D000990F311D87FD916000966105710539F4D6
:1040E00032602E5F3D9330E32A95E1F708959F3FBC
:1040F00030F080387105610509F03C5F3C5F3D930D
:10410000913008F08068911DDF93CF931F930F9338
:10411000FF92EF92192F987F9695E92F9695969595
:10412000E90FFF27E158FE4F99273327EE24FF249C
:10413000A701E70105900894079428F4360FE71EBD
:10414000F81E491F511D660F771F881F991F06947F
:10415000A1F70590079428F4E70EF81E491F561F93
:10416000C11D770F881F991F661F0694A1F7059040
:10417000079428F4F80E491F561FC71FD11D880F3A
:10418000991F661F771F0694A1F70590079420F4E6
:10419000490F561FC71FD81F990F661F771F881F0B
:1041A0000694A9F784911095177041F0D695C7959C
:1041B00057954795F794E7941A95C1F7E5E2F1E032
:1041C00068941590159135916591959105907FE2D0
:1041D0007395E118F10A430B560BC90BD009C0F7D0
:1041E000E10CF11E431F561FC91FD01D7EF4703312
:1041F00011F48A95E6CFE894015030F0080F0AF4E4
:104200000027021708F4202F2395022F7A3328F075
:1042100079E37D932A95E9F710C07D932A9589F675
:10422000069497956795379517951794E118F10AB5
:10423000430B560BC90BD00998F023957E917395CB
:104240007A3308F070E37C932013B8F77E917061A5
:104250007D9330F0839571E37D9370E32A95E1F7C8
:104260001124EF90FF900F911F91CF91DF9199272B
:1042700087FD9095089591110C942F22803219F0AA
:1042800089508550C8F70895FB01DC01415050402A
:1042900088F08D9181341CF08B350CF4805E659133
:1042A00061341CF06B350CF4605E861B611171F398
:1042B000990B0895881BFCCF0E949E2108F481E091
:1042C0000895E89409C097FB3EF490958095709509
:1042D00061957F4F8F4F9F4F9923A9F0F92F96E952
:1042E000BB279395F695879577956795B795F111C7
:1042F000F8CFFAF4BB0F11F460FF1BC06F5F7F4F64
:104300008F4F9F4F16C0882311F096E911C0772375
:1043100021F09EE8872F762F05C0662371F096E87E
:10432000862F70E060E02AF09A95660F771F881F4D
:10433000DAF7880F9695879597F90895990F0008F1
:10434000550FAA0BE0E8FEEF16161706E807F90767
:10435000C0F012161306E407F50798F0621B730B02
:10436000840B950B39F40A2661F0232B242B252B83
:1043700021F408950A2609F4A140A6958FEF811D26
:10438000811D08950E94D5210C9449220E943B2250
:1043900038F00E94422220F0952311F00C94322232
:1043A0000C94382211240C947D220E945A2270F31E
:1043B000959FC1F3950F50E0551F629FF001729FCA
:1043C000BB27F00DB11D639FAA27F00DB11DAA1FD9
:1043D000649F6627B00DA11D661F829F2227B00D26
:1043E000A11D621F739FB00DA11D621F839FA00DB1
:1043F000611D221F749F3327A00D611D231F849F01
:10440000600D211D822F762F6A2F11249F57504057
:104410009AF0F1F088234AF0EE0FFF1FBB1F661FD2
:10442000771F881F91505040A9F79E3F510580F09B
:104430000C9432220C947D225F3FE4F3983ED4F337
:10444000869577956795B795F795E7959F5FC1F73F
:10445000FE2B880F911D9695879597F908959927BA
:104460008827089597F99F6780E870E060E00895D5
:104470009FEF80EC089500240A941616170618067C
:104480000906089500240A94121613061406050658
:104490000895092E0394000C11F4882352F0BB0FE9
:1044A00040F4BF2B11F460FF04C06F5F7F4F8F4F4C
:1044B0009F4F089557FD9058440F551F59F05F3F87
:1044C00071F04795880F97FB991F61F09F3F79F036
:1044D00087950895121613061406551FF2CF4695B8
:1044E000F1DF08C0161617061806991FF1CF86953A
:1044F0007105610508940895E894BB27662777271E
:10450000CB0197F90895DC01CB01FC01F999FECFAD
:1045100006C0F2BDE1BDF89A319600B40D9241504B
:104520005040B8F70895DC01A40FB51F415050402A
:1045300048F0CB01840F951F2E910E94A422415078
:104540005040D0F70895262FF999FECF92BD81BD36
:10455000F89A019700B4021639F01FBA20BD0FB6C1
:10456000F894FA9AF99A0FBE08950E94F722A59F2F
:10457000900DB49F900DA49F800D911D112408955E
:104580002F923F924F925F926F927F928F929F9263
:10459000AF92BF92CF92DF92EF92FF920F931F9351
:1045A000CF93DF93CDB7DEB7CA1BDB0B0FB6F89402
:1045B000DEBF0FBECDBF09942A88398848885F8442
:1045C0006E847D848C849B84AA84B984C884DF80B3
:1045D000EE80FD800C811B81AA81B981CE0FD11D97
:1045E0000FB6F894DEBF0FBECDBFED010895A29FB8
:1045F000B001B39FC001A39F700D811D1124911DB7
:10460000B29F700D811D1124911D08955058BB2734
:10461000AA270E941E230C9449220E943B2238F0B4
:104620000E94422220F039F49F3F19F426F40C94A2
:1046300038220EF4E095E7FB0C943222E92F0E9419
:104640005A2258F3BA17620773078407950720F0B8
:1046500079F4A6F50C947C220EF4E0950B2EBA2F7B
:10466000A02D0B01B90190010C01CA01A001112478
:10467000FF27591B99F0593F50F4503E68F11A1624
:10468000F040A22F232F342F4427585FF3CF4695B5
:1046900037952795A795F0405395C9F77EF41F16D7
:1046A000BA0B620B730B840BBAF09150A1F0FF0FA1
:1046B000BB1F661F771F881FC2F70EC0BA0F621F8D
:1046C000731F841F48F4879577956795B795F7957D
:1046D0009E3F08F0B0CF9395880F08F09927EE0F12
:1046E0009795879508950E9487230C9449220E94EC
:1046F000422258F00E943B2240F029F45F3F29F00B
:104700000C94322251110C947D220C9438220E9478
:104710005A2268F39923B1F3552391F3951B550B56
:10472000BB27AA2762177307840738F09F5F5F4F84
:10473000220F331F441FAA1FA9F335D00E2E3AF0C3
:10474000E0E832D091505040E695001CCAF72BD0DB
:10475000FE2F29D0660F771F881FBB1F261737072C
:104760004807AB07B0E809F0BB0B802DBF01FF275E
:1047700093585F4F3AF09E3F510578F00C943222E7
:104780000C947D225F3FE4F3983ED4F386957795B1
:104790006795B795F7959F5FC9F7880F911D969517
:1047A000879597F90895E1E0660F771F881FBB1F73
:1047B000621773078407BA0720F0621B730B840B20
:1047C000BA0BEE1F88F7E09508950E94EC236894D9
:1047D000B1110C947D2208950E94622288F09F57A7
:1047E00098F0B92F9927B751B0F0E1F0660F771F15
:1047F000881F991F1AF0BA95C9F714C0B13091F00B
:104800000E947C22B1E008950C947C22672F782FBF
:104810008827B85F39F0B93FCCF3869577956795CF
:10482000B395D9F73EF490958095709561957F4F3B
:104830008F4F9F4F089597FB16F40E945F240C94AE
:104840002224E894F92F96EBFF2381F01216130629
:104850001406440B9395F69587957795679557952C
:104860004040FF23B9F71BC099270895882351F4CE
:104870009850D2F7872B762F652F542F432F322F46
:1048800020E0B1F3121613061406440B88233AF005
:104890009A95440F551F661F771F881FCAF7552327
:1048A0004AF4440F551F11F460FF04C06F5F7F4F3F
:1048B0008F4F9F4F880F9695879597F908959095FC
:1048C00080957095609550954095309521953F4F16
:1048D0004F4F5F4F6F4F7F4F8F4F9F4F08950E94F5
:1048E0009E2108F48FEF0895FA01EE0FFF1F309616
:1048F00021053105A1F16115710561F48038BFE32F
:104900009B0749F168949038810561F08038BFEFCA
:104910009B0741F099234AF5FF3FE1053105210549
:1049200019F1E8940894E795D901AA2329F4AB2F4B
:10493000BE2FF85FD0F310C0FF5F70F4A695E0F7CC
:10494000F73950F019F0FF3A38F49F779F930DD064
:104950000F9007FC9058089546F00C94382260E0C0
:1049600070E080E89FE308954FE79F775F934F9350
:104970003F932F930E946F252F913F914F915F910D
:104980000E94C2210C94CC2429F416F00C943222FB
:104990000C947C220C9438220E946222A8F3963850
:1049A000A0F707F80F92E8942BE33AEA48EB5FE7A9
:1049B0000E94D8210F920F920F924DB75EB70F92BF
:1049C0000E94B725E8E6F0E00E94FE244F915F9137
:1049D000EF91FF91E595EE1FFF1F49F0FE57E0684C
:1049E0004427EE0F441FFA95E1F74195550B0E94BD
:1049F00031250F9007FE0C9425250895DF93CF9362
:104A00001F930F93FF92EF92DF927B018C016894CA
:104A100006C0DA2EEF010E94D521FE01E894A5918F
:104A20002591359145915591A6F3EF010E941E23E2
:104A3000FE019701A801DA9469F7DF90EF90FF90EB
:104A40000F911F91CF91DF9108959B01AC0160E020
:104A500070E080E89FE30C9473230C9432220C9452
:104A6000EB250E946222D8F39923C9F3940F511DBC
:104A7000A3F39150504094F059F0882332F0660F20
:104A8000771F881F91505040C1F79E3F51052CF76A
:104A9000880F911D9695879597F908955F3FACF023
:104AA000983E9CF0BB27869577956795B79508F457
:104AB000B1609395C1F7BB0F58F711F460FFE8CFD1
:104AC0006F5F7F4F8F4F9F4FE3CF0C947D2216F087
:104AD0000C94EB250C94382268940C9432220E949A
:104AE0006222A8F39923C1F3AEF3DF93CF931F9310
:104AF0000F93FF92C92FDD2788232AF02197660F95
:104B0000771F881FDAF720E030E040E85FEB9FE393
:104B1000883920F0803E38F021968F770E94072355
:104B2000E0E9F0E004C00E940723EDEBF0E00E9412
:104B3000FE248B01BE01EC01FB2E6F5771097595A8
:104B4000771F880B990B0E94632128E132E741E32C
:104B50005FE30E94D521AF2D9801AE01FF900F9128
:104B60001F91CF91DF910E941E230C944922FA01DC
:104B7000DC01AA0FBB1F9B01AC01BF5728F4222701
:104B800033274427507820C0B75190F4AB2F00242E
:104B9000469537952795011CA395D2F3002071F017
:104BA000220F331F441FB395DAF30ED00C94062363
:104BB00061307105A0E88A07B94630F49B01AC0169
:104BC0006627772788279078309621F020833183D5
:104BD0004283538308959F3F31F0915020F487958D
:104BE00077956795B795880F911D9695879597F955
:104BF0000895DB018F939F930E94B522BF91AF91DF
:104C0000A29F800D911DA39F900DB29F900D112426
:104C10000895B7FF0C94B5220E94B522821B930B16
:104C20000895DF93CF931F930F939A9DF02D219FAB
:104C3000F00D8B9DF00D8A9DE02DF10D039FF00D81
:104C4000029FE00DF11D4E9DE00DF11D5E9DF00DEA
:104C50004F9DF00D7F936F93BF92AF925F934F93F1
:104C6000D5010E94F7228B01AC01D7010E94F722E7
:104C7000EB01E80FF91FD6010E9460262F913F91AA
:104C8000D6010E94F722C60FD71FE81FF91FAF9168
:104C9000BF910E9460262F913F910E94F722C60F7C
:104CA000D71FE81FF91FD6010E94F722E60FF71F52
:104CB0009801BE01CF010F911F91CF91DF9108950F
:104CC0000E94F722460F571FC81FD91F08F43196BC
:104CD0000895689401C0E894F92FF12B12F00C9418
:104CE0009D26A0E0B0E0E7E7F6E20C94C622092E8C
:104CF000059422F40E94F926112392F4F0E80F267D
:104D0000FFEFE094F09400951095B094C094D09487
:104D1000A194BF0ACF0ADF0AEF0AFF0A0F0B1F0B8D
:104D20000E94A82607FC0E94F926CDB7DEB7ECE06A
:104D30000C94E222689401C0E8948F929F92CF93E2
:104D4000DF930E94A826DF91CF919F908F900895C6
:104D500088249924F401E401B0E49F93AA279A15CA
:104D60008B049C04ED05FE05CF05D007A10798F440
:104D7000AD2FDC2FCF2FFE2FE92D982C892E982FC9
:104D8000872F762F652F542F432F322F2227B8508D
:104D900031F7BF9127C01B2EBF91BB27220F331FB6
:104DA000441F551F661F771F881F991F881C991C59
:104DB000EE1FFF1FCC1FDD1FAA1FBB1F8A149B0401
:104DC000EC05FD05CE05DF05A007B10748F08A1800
:104DD0009B08EC09FD09CE09DF09A00BB10B21608E
:104DE0001A94E1F62EF49401AF01BE01CD01000C3E
:104DF0000895609570958095909530954095509563
:104E000021953F4F4F4F5F4F6F4F7F4F8F4F9F4FBA
:104E10000895002E083090F0982F872F762F652F59
:104E2000542F432F322F22270850F4CF220F331F45
:104E3000441F551F661F771F881F991F0A95B2F7D9
:104E4000002D089597FD1094002E083098F008501A
:104E5000232F342F452F562F672F782F892F912DF1
:104E6000F4CF1594979587957795679557954795BE
:104E7000379527950A95AAF71124002D08952A0D34
:104E80003B1D4C1D5D1D6E1D7F1D801F911F0895D4
:104E90002A193B094C095D096E097F09800B910BAA
:104EA00008950024A7FD00942A17300540055005F9
:104EB00060057005800590050895EE0FFF1F0590B1
:104EC000F491E02D0994FB01DC018D910190801992
:104ED0000110D9F3990B0895FB01DC0141505040BA
:104EE00048F001900D920020C9F701C01D92415079
:0A4EF0005040E0F70895F894FFCF5A
:104EFA00FFFF00FCE1A8A81B0CF305590D3406338B
:104F0A00062F061D061306820D4E06FF312E3400AB
:104F1A004E524632342053656E736F72730001002D
:104F2A000100300000000000000000003000000016
:104F3A000000000000003000000000000000000037
:104F4A00010001FFD002650BA40DFF4C034C0300C6
:104F5A00010201030101010401010101010101052D
:104F6A0000000000E3034D037A033004AB03890316
:104F7A009D0300000000DB04AE0428058B044202F6
:104F8A009B048C040D0A0053693730323120466F76
:104F9A00756E640048545532314420466F756E640C
:104FAA00004E6F20446576696365732044657465B5
:104FBA006374656400322E332E310048756D69645E
:104FCA006974790054656D706572617475726500F3
:104FDA005072657373757265004C75780056636319
:084FEA0000456D7079740000B0
:00000001FF
